:020000040800F2
:10000000C80A00203D020008C33A0008592D000824
:10001000C13A0008651E0008ED3E0008000000001F
:10002000000000000000000000000000873E000803
:10003000671E000800000000853E0008893E000899
:10004000570200085702000857020008570200082C
:10005000570200085702000857020008570200081C
:10006000570200085702000857020008570200080C
:1000700057020008570200085702000857020008FC
:1000800057020008570200085702000857020008EC
:1000900057020008570200085702000857020008DC
:1000A00057020008570200085702000857020008CC
:1000B000570200085702000857020008692D00087F
:1000C0005D2D00085702000857020008570200087B
:1000D000570200085702000857020008570200089C
:1000E00057020008570200085702000800F002F803
:1000F00000F094F80AA090E8000C82448344AAF12E
:100100000107DA4501D100F089F8AFF2090EBAE82B
:100110000F0013F0010F18BFFB1A43F0010318473B
:10012000FC4800001C490000103A24BF78C878C180
:10013000FAD8520724BF30C830C144BF04680C60ED
:10014000704700000023002400250026103A28BF35
:1001500078C1FBD8520728BF30C148BF0B60704739
:100160006E2900F09382702900F0D583662903F090
:100170002D87652903F02A87672903F027876129DE
:1001800003F0268703681B0A28BF41F08001692914
:1001900000F04082642900F03D82752900F03A8227
:1001A0006F2900F06283782900F0A183E92900F02B
:1001B000FD82E42900F0FA82F52900F0F782EF29A8
:1001C00000F05F83F82900F0A0830368DB0928BFF3
:1001D00041F08001632901F0F380732901F0F88078
:1001E000E32901F00381F32901F008810020704721
:1001F0001FB59DE8030000F075F901F059F90400FE
:100200000020002103F0CCFE401C60600020002193
:1002100003F0B0FEE0601FBD10B510BD01F01AF98B
:100220001146FFF7E5FF03F08DFE01F0F7F903B487
:10023000FFF7F2FF03BC01F027FA000009488047EE
:1002400009480047FEE7FEE7FEE7FEE7FEE7FEE7B8
:10025000FEE7FEE7FEE7FEE704480549054A064BD0
:1002600070470000EB3E0008ED000008C8040020C5
:10027000C80A0020C8060020C806002070B506463F
:1002800000F014F9056806F10B0020F00704B442F1
:100290009CBF002070BD2B466A68BAB11068A042AE
:1002A00010D304F1080188423CBF5068586007D35E
:1002B0005168101941601168091B01605860146091
:1002C000101D70BD13465268002AE7D1214628460A
:1002D00000F0F4F80028DED170BD70B50446051FAB
:1002E00000F0E4F80068002C14BF446870BD002CD6
:1002F00018BFAC423CBF20466468F8D301680A18B6
:10030000AA4218BF456003D12A680546114401601E
:1003100028684119A1421CBF6C6070BD61686960AA
:1003200021680844286070BD1CB50C46064B7B4410
:1003300069460090204600F0C2F904460020694654
:1003400000F0D0F920461CBDB3030000032A40F2A0
:10035000308010F0030C00F0158011F8013BBCF167
:10036000020F624498BF11F801CB00F8013B38BF7F
:1003700011F8013BA2F1040298BF00F801CB38BF8D
:1003800000F8013B11F0030300F09483083AC0F039
:10039000088051F8043B083A51F804CBA0E8081053
:1003A000F5E7121D5CBF51F8043B40F8043BAFF386
:1003B0000080D20724BF11F8013B11F801CB48BFE0
:1003C00011F8012B24BF00F8013B00F801CB48BF16
:1003D00000F8012B70474FF0000200B51346944619
:1003E0009646203922BFA0E80C50A0E80C50B1F18D
:1003F0002001BFF4F7AF090728BFA0E80C5048BFA1
:100400000CC05DF804EB890028BF40F8042B08BF3E
:10041000704748BF20F8022B11F0804F18BF00F83A
:10042000012B70474FF0013C50F8042B51F8043B6E
:100430009A4221D1A2EB0C03934313EACC1317D1B8
:1004400050F8042B51F8043B9A4215D1A2EB0C034F
:10045000934313EACC130BD150F8042B51F8043B0F
:100460009A4209D1A2EB0C03934313EACC13DBD0DD
:100470004FF00000704700BFD01A01BAB1FA81F105
:1004800001F0180122FA01F0CB40C1F12001DBB2EA
:10049000C0B2C01A2CFA01F3D11A914311EAC31168
:1004A000E6D17047704770477047000000487047BA
:1004B0006C040020704770477047704738B5044699
:1004C0000A4600206946AFF30080002808BF38BD07
:1004D00002460099204600F023FB012038BD012090
:1004E00000F0B0BFF8B5AFF30080054600200C4621
:1004F000102000BF0646A819A0420DD93246694611
:100500000020AFF30080070008BF00F09BFF0098B9
:10051000A04218BF0546C419FFF7C8FF056007468B
:10052000F01D20F007004619284600F00AF8B442F2
:1005300008BFF8BDA21B31463868BDE8F84000F09E
:10054000EFBA00210160C0E9011070471020704728
:1005500070B5044685690068C10601D5302600E003
:100560002026C00707D070BDD4E90121304690474E
:10057000206A401C20626D1EF6D570BD70B5044621
:1005800085690078C00707D170BDD4E9012120201A
:100590009047206A401C20626D1EF6D570BD096828
:1005A0004A0501D540B27047C905FCD500B2704775
:1005B00009684A0501D5C0B27047C905FCD580B2AB
:1005C000704770B50C460546012A05D0287880068C
:1005D00000D5EA69002302E0012305E05B1C934299
:1005E00002D2E05C0028F9D1A869E618C01AA86117
:1005F000286A184428622846FFF7AAFF04E0D5E9D4
:10060000012114F8010B9047B442F8D32846FFF7B4
:10061000B5FF70BD2DE9F04106460024106875292C
:10062000314616A510D0FFF7BAFF002802DA404283
:1006300013A507E031688A0701D512A502E0490732
:1006400004D511A5012401E0FFF7B2FF00210A2221
:1006500006F1240709E0B0FBF2FCB0FBF2F302FB69
:100660001C00303078541846491C0028F3D123462A
:100670002A463046BDE8F04100F0B1BA0000000063
:100680002D0000002B00000020000000116802680F
:10069000006A530501D508700AE0D30501D508802A
:1006A00006E0130603D5C217C1E9000200E00860A6
:1006B0000120704701694A1C02610878704700B543
:1006C0008FB0CDE901310021059105497944CDE98B
:1006D00003101146684600F029F90FB000BD000074
:1006E000E5FFFFFF0A6802F8010B0A60704700008F
:1006F0002DE9FF5F15468A460446DFF8AC80F844D2
:100700000027D8E900103E46CDE9001010E03AF885
:1007100016106A4602A800F075FE411C07D0217829
:10072000890603D5E269391891420DD80744761C31
:100730002078800602D5E069B84205DDAE42E6DBEE
:100740003AF816000028E2D1A069C01BA06120463B
:10075000FFF7FEFED8E90010CDE90010002017E0F9
:100760003AF818106A4602A800F04CFEB0F1FF3FBC
:1007700081460BD000250DF1080B05E0D4E90121DD
:100780001BF8050090476D1C4D45F7D308F101009B
:10079000B0428046E4DB206A384420622046FFF7FE
:1007A000EDFEBDE8FF9F00001E4200002DE9F04174
:1007B0008046D21D22F007020025D2E90002F52969
:1007C00015A614D0011E72F1000106DA0023D0EB49
:1007D000030063EB020211A608E0D8F800108B07B3
:1007E00001D50FA602E0490701D50EA60125114645
:1007F000002408F1240704E000F0ACF930323A5547
:10080000641C50EA0102F7D12B463246214640468D
:10081000BDE8F04100F0E3B9000000002D00000049
:100820002B0000002000000030B4002100F124045F
:1008300008E002F00705D208303542EA4372DB08CF
:100840006554491C52EA0305F3D10468002310A241
:10085000250707D5A40600D421B1C46901230DA240
:10086000641EC46130BC00F0BAB910B5044621461C
:100870001068FFF79DFE02462046BDE810400023A9
:10088000D2E7D21D22F00701D1E90023CCE7000016
:100890000000000030000000F0B40D46018809059A
:1008A00002D5214C7C4402E01F4C7C440E340021D4
:1008B00000F1240608E002F00F071209E75D42EAA2
:1008C00003721B097754491C52EA0307F3D10278DB
:1008D0000023120704D5702D06D009B1022311346C
:1008E0002246F0BC00F07BB901231034F8E770B564
:1008F00004460D4621461068FFF75AFE0246294677
:100900002046BDE870400023C6E7D21D22F0070351
:10091000D3E90023C0E70368126843F020030360B3
:100920000823C3610023B7E7804000002DE9F05F92
:10093000894604464FF0000ADFF874B1FB44C0F862
:1009400020A02046E1688847002874D0252806D0DA
:10095000D4E901219047206A401C2062F1E700267B
:100960005F462046E16888472028054607DB312D91
:1009700005D2781910F8200C08B10643F1E7B0074A
:1009800001D526F00406C4F81CA00027C4F818A05E
:100990002A2D09D0284603F0CEFA38B304EB870895
:1009A000303DC8F8185019E059F8041B204604EBF4
:1009B00087029161E1688847012F054618D1E069F7
:1009C000002820DA26F020061DE0D8F8180000EBF9
:1009D000800005EB40003038C8F818002046E16878
:1009E0008847054603F0A7FA0028EED1012F0AD068
:1009F0002E2D08D12046E16888477F1C0546022F2E
:100A000046F02006C4DBA069002803DA404246F025
:100A10000106A061F00701D026F010066C2D0BD066
:100A2000682D09D04C2D39D06A2D35D0742D35D094
:100A30007A2D33D016E038E0E1682F46204688470B
:100A4000B842054609D16C2F26D04FF48060E1688A
:100A5000064320468847054604E06C2F1AD04FF421
:100A6000807006430DB3A5F14100192802D8203546
:100A700046F400664A462946204626604E46FFF761
:100A80006FFB80B101280BD0F61D26F0070000F1A6
:100A9000080956E74020E4E78020D8E70020D6E7A1
:100AA00006F104094DE7284652E7206ABDE8F09FA9
:100AB0001040000010B5203AC0F00B80B1E818508B
:100AC000203AA0E81850B1E81850A0E81850BFF438
:100AD000F5AF5FEA027C24BFB1E81850A0E81850D7
:100AE00044BF18C918C0BDE810405FEA827C24BF2B
:100AF00051F8043B40F8043B08BF7047D20728BFB9
:100B000031F8023B48BF11F8012B28BF20F8023B07
:100B100048BF00F8012B704700487047640400206C
:100B2000034640688C46002818BF88423CBF0346F5
:100B30004068F8D318681844884207D00CF10300C5
:100B400020F00700001D411A521A0146081D0A60D4
:100B5000FFF7C3BB30B5B0F10A024FEA900E71F156
:100B600000034EEA817EB0EB0E0061EB91014FEA8B
:100B7000101E4EEA017E10EB0E0041EB11114FEA00
:100B8000102E4EEA016E10EB0E0041EB11214FEAE0
:100B9000104E4EEA014E10EB0E0041EB1141401891
:100BA00041F100014FEAD00040EA41704FEAD10123
:100BB00010EB80054FEA810444EA907444EB010491
:100BC0006D1944EB0404521BA3414FF0000348BFCE
:100BD0000A3200D530BD401C41F1000130BD2DE985
:100BE000F0470D4699469246044600F124080168F4
:100BF000880604D5E06921F01001216000E00120A1
:100C0000A84201DD471B00E00027A1697A1902EB29
:100C10000900081AA0612078C00602D42046FFF718
:100C200097FC002608E0D4E901211AF80600904755
:100C3000206A401C761C20624E45F4DB2078C006FA
:100C40000AD52046FFF784FC06E0D4E901213020D4
:100C50009047206A401C2062381EA7F10107F4DC8F
:100C600007E0D4E9012118F805009047206A401CEC
:100C70002062281EA5F10105F3DC2046FFF77EFC6B
:100C80002078000602D50220BDE8F0870120FBE7AE
:100C900070472DE9FF4F0C461E464FF0FF378BB0D3
:100CA000D2E90001DDF860800A908A46C1F30A5556
:100CB00005B93D46002108464FF00000BAF1000F8B
:100CC00000F4400005DA00EB80004FF4400101EA37
:100CD00050004FEA9059B9F1010F00DDB9460A986A
:100CE00050EA4A000ED044F61050A5F2FF354543B5
:100CF0002F14B8F1000F1ED07542291E1EDDC9F158
:100D000000021CE0B8F1010F4FF0000001D03021CB
:100D100003E0F24305E02154401CB042FBDB3046C7
:100D20000022002121540B99C1F80880C1E900205C
:100D30000FB0BDE8F08FBD1B6D1CDEE74A4600DA40
:100D4000694206A800F0F8FB06AB93E8070003AB86
:100D500083E8070050460A9900F0BCFC8DE80700C4
:100D6000A0F500501F3800900398002D0ADD42F2D4
:100D70001F014A460844002303A90390684600F077
:100D800025FF09E0A0F500504A461F38002303A9BB
:100D90000390684600F02FFF8DE807000004000C68
:100DA00003D04FF0FF30410800E01046B8F1000FCB
:100DB00003D00022009215461EE0751E05D4FFF7F1
:100DC000C9FE303262556D1EF9D5B3460122084383
:100DD00002D000227F1C04E02078302801D10022BC
:100DE0007F1E002A099784D01DE0112D07DAFFF736
:100DF000B1FE303262556D1C50EA0102F5D1084354
:100E000002D00098C8B10EE00021681E05E0235C06
:100E1000625C63542254401E491C8142F7DBAB469E
:100E2000A81B401E0990002004F80B000B98099A9B
:100E3000C0F80880C0E9002B7AE711264FF00008BF
:100E400057E72DE9F04F88460446D21D22F00701EE
:100E500091B0D1E90001CDE90A0103F048F802465A
:100E60000B98C00F01D02D2007E02068810701D525
:100E70002B2002E0202101EAC000032A099001D0C2
:100E8000072A05DB03464146204600F015FB0BE12F
:100E90002078800601D5E06900E00620B8F1650FF2
:100EA000814606D0B8F1660F18D0B8F1670F70D13F
:100EB00031E00020B9F1110F009001DB112301E0B6
:100EC00009F101030AAA01A90CA8FFF7E2FEDDE976
:100ED0000C70002609F10105834647E001204B46CE
:100EE00000904FF000470AAA01A90CA8FFF7D1FE15
:100EF000DDE90DB00C995D46002610B909F101003D
:100F00000D18B9EB050003D4C0F1FF3609F1010556
:100F1000A5EB09002BE0B9F1010F01DA4FF001094F
:100F20000020B9F1110F0090484601DD112300E0C7
:100F300003460AAA01A90CA8FFF7ABFEDDE90C7075
:100F40004D4600268346207800070AD4AB4500DAD8
:100F50005D4601A8012D04DD411911F8011C30295D
:100F600007D04F4502DA17F1040F04DA0120824658
:100F70000FE06D1EEEE7002F02DCED1B3E4403E0A8
:100F8000781CA84200DD7D1CB81B00F1010A4FF05F
:100F900000472078000703D4AA4501DB4FF0FF3A51
:100FA0000021B7F1004F0DF143088DF8431024D014
:100FB00002202B23002F01DA7F422D230A21021E5B
:100FC000A0F1010000DC5FB197FBF1FC97FBF1F2AF
:100FD00001FB1C7C17460CF1300C08F801CDEEE744
:100FE000A8F1010003702188090501D5452100E021
:100FF0006521A0F1010800F8011C09980FA9A1EBD7
:101000000807FF1D00B10120411901EBEA70A16939
:101010003844081A401EA0612078C00602D4204639
:10102000FFF796FA099828B1D4E901219047206A80
:10103000401C20622078C00622D52046FFF788FA9F
:101040001EE0002E04DBB34502DD01A8805D00E058
:101050003020D4E901219047206A401C2062761C90
:10106000AAF101005FEA000A0AD100F021FAC06883
:101070000168405CD4E901219047206A401C20624D
:10108000281EA5F10105DCDC07E0D4E9012118F8F0
:10109000010B9047206A401C2062381EA7F101070F
:1010A000F3DC2046FFF76AFA032011B041E60000A6
:1010B0002DE9F04F04460D46D21D22F0070089B0FD
:1010C000D0E900974846394602F011FF0246F80F72
:1010D00001D02D2307E02068810701D52B2302E0F2
:1010E000202101EAC0038DF820300BB1012000E07F
:1010F0000020032A824601D0072A04DB2946204625
:1011000000F0DAF93FE12078800601D40D2500E0F7
:10111000E569C7F30A560D2D49DA00214FEA175B3E
:1011200008464FF00000002F00F4400007DA00EB03
:1011300080004FF4400100EBD07001EA600081159F
:10114000012901DD4FF0FF3100224FEA850CBCF18F
:10115000180F06D31346ACF118004FF08052C2406E
:1011600003E04FF4801323FA0CF30CF10C0CBCF1E8
:10117000200F04D3ACF1200C09FA0CF001E007FABF
:101180000CF000294FF0004801DD18B90FE00ED136
:1011900040450CD319EB02095F4121B9404502D10A
:1011A0009F4329EA0209BBEB175F00D0761C208819
:1011B000000502D57B48784402E07A487844193823
:1011C00008AA302302F80A30037C0AF10101002E3C
:1011D0000AF1020A53546A4602DC4FF0300101E082
:1011E0004FF031014FF001088DF8001002D0A6F247
:1011F000FF3603E059EA470100D06B4E002D02DCB8
:101200002178090704D54FF002082E218DF801102E
:10121000C44600210BE0C7F303433F01C35C491CF4
:101220006D1E02F80830052908F1010801DA002DC9
:10123000F1DC00210CE000EB1973491C1B786D1EDA
:10124000082902F808304FEA091908F1010801DA03
:10125000002DF0DC21688B0602D516E0A8F101080C
:10126000E04505DD02EB080313F8013C302BF5D017
:10127000B8F1000F09DD02EB080313F8013C2E2B37
:1012800003D1090701D4A8F10108002D05DD3E2195
:1012900002F808106D1E08F10108407C002E02F8CB
:1012A000080008F1010804DA2D20764202F808004F
:1012B00002E02B2002F808000A214FF47A708642DF
:1012C00008F101080BDB96FBF0F3303302F808302D
:1012D00096FBF0F308F1010800FB136601E0642EB1
:1012E0000CDB642096FBF0F3303302F8083096FBF9
:1012F000F0F308F1010800FB136601E00A2E06DB9B
:1013000096FBF1F0303002F8080008F1010896FB76
:10131000F1F001FB1060303002F80800A16908F11B
:10132000010808EB050202EB0A00081AA061207808
:10133000C00602D42046FFF70BF9216A08AE01EB84
:101340000A00206204E0D4E9012116F8010B90475D
:10135000BAF1010AF7D22078C00602D52046FFF77D
:10136000F7F86E4609E016F8010B3E280FD0D4E9D5
:1013700001219047206A401C2062B8F10108F2D296
:101380002046FFF7FBF809B00320BDE8F08F206A84
:101390002844206203E0D4E90121302090476D1EEB
:1013A000EBD3F8E7BA37000002FCFFFF10B5436942
:1013B00013B1AFF3008001E0FFF703F9012010BD86
:1013C000127800F124010A7000224A700122EDE730
:1013D00011684FF0FF32E9E710B5436913B1AFF37D
:1013E000008001E0FFF784F9012010BD128800F1B0
:1013F000240182840022C2840122EDE711684FF0AB
:10140000FF32E9E770B516460C46054600F048F88D
:10141000036893F80101012806D0FF2C0FD8185D4E
:1014200068B101202C7070BDD3F807013246214607
:1014300003F2071303442846BDE8704018474FF0F5
:10144000FF3070BD10B500F0F7F8BDE8104000F0B7
:10145000EEB870477546FFF75FFBAE46050069467C
:10146000534620F00700854618B020B5FEF7F4FE7D
:10147000BDE820404FF000064FF000074FF0000895
:101480004FF0000B21F00701AC46ACE8C009ACE816
:10149000C009ACE8C009ACE8C0098D46704700003F
:1014A00010B500F005F8001D10BD00BFF52A0000C2
:1014B00000487047840400202DE9F0411F4604468F
:1014C00003260168072A01F4006004DB08B116A5B1
:1014D00005E016A503E008B115A500E015A521F06B
:1014E00010002060A069C01EA0610FB1401EA06165
:1014F0002046FFF72DF84FB1D4E901213846904737
:10150000206A401C2062C01C206206E0206AFAE7C4
:10151000D4E9012115F8010B9047761EF8D2204638
:10152000FFF72CF8BDE8F0814E414E006E616E0071
:10153000494E4600696E66002DE9F0478146164621
:101540008AB0354878440DC88DE80D00324878449B
:10155000801C03AC0DC884E80D0041F69B300844A4
:10156000372190FBF1F290FBF1F5A5F1800501FB2D
:1015700012041B3C02D56442012000E00020DFF889
:1015800098A080460027FA44AAF1BE0A0EE0E007C0
:101590000AD03246684607EB470101230AEB810176
:1015A00000F029FB8DE8070064107F1C002CEED1B1
:1015B000194F7F44AE3F19E0E80715D007EB041040
:1015C0000DF1180A90E80E008AE80E00C068F0429B
:1015D00001D1981908903246012306A903A800F00A
:1015E0000AFB03AB83E807006D10641C002DE3D1F8
:1015F0004FF0010332466946B8F1000F03A802D04C
:1016000000F0E4FA01E000F0F6FAC9E90001C9F8D7
:1016100008200AB0BDE8F087BC34000010B50446CD
:10162000AFF300802046BDE81040FEF700BE002862
:1016300001D000F029B8704710B5012805D000216D
:1016400003A000F027F8012010BD09A1F8E7000071
:1016500053494752544D454D3A204F7574206F669B
:101660002068656170206D656D6F72790000000003
:101670003A2048656170206D656D6F727920636FE7
:10168000727275707465640001491820ABBEFEE784
:101690002600020070B505460C460A2000E06D1CCD
:1016A00000F011F835B128780028F8D102E0641C68
:1016B00000F009F814B120780028F8D1BDE8704096
:1016C0000A20AFF3008008B569468DF800000320BA
:1016D000ABBE08BD5FEA400C08BF91F0000F4FEAB7
:1016E0008C234FEAC12243EA51514FEA1C5018BFE4
:1016F00000F5F0404FEA300018BF41F000415FEACA
:101700006C5C00F02980BCF1FF3F08BF40F08040D6
:101710007047130C06BF12044FF0100C4FF0000C72
:10172000130E04BF12020CF1080C130F04BF1201B8
:101730000CF1040C930F04BF92000CF1020CD30FB8
:1017400004BF52000CF1010C11464FF00002A0F151
:101750001F00A0EB0C00704711F0004F08BF70474E
:1017600031F000413FF4D5AF0B0C06BF09044FF038
:10177000100C4FF0000C0B0E04BF09020CF1080C0A
:101780000B0F04BF09010CF1040C8B0F04BF89007F
:101790000CF1020CCB0F04BF49000CF1010CCCF191
:1017A0002003A0EB0C0022FA03F302FA0CF241EA48
:1017B000030100F10100704720F07F4C80EA030034
:1017C00023F07F47ACEB070303F57C5300F00040A8
:1017D00003F1FF032DE980494FEA154B09B44FEAA5
:1017E000144325EA0B4E24EA03480FF2042606EBC5
:1017F000132749083E785FEA320203FB0667C7F504
:10180000000707FB06F64FEA54374FEAD64606F1C3
:10181000020607FB066CCCF1005C4FEA1C472CEA81
:10182000074C07FB06F40CFB06F504EB15464FEAE4
:10183000961634BF00204FF000404FEAD13706FB28
:1018400007FC4FEA1C4C0CFB0BF7D21B03FB0CF7FD
:1018500061EB07010CFB0EF7B0EB074072EB174290
:101860000CFB08F734BFA2EB0742B2EB074261EB77
:1018700017414FEA0C444FEA910706FB07FC4FEA79
:101880001C4C0CFB0BF7B0EBC74072EB573203FB61
:101890000CF734BFA2EBC742B2EBC74261EB573142
:1018A0000CFB0EF7B0EBC70072EB57720CFB08F79E
:1018B00034BFA2EBC702B2EBC70261EB5771039FC3
:1018C0004FEA816141EA921104EBCC044FEAD1372F
:1018D0004FEA826206FB07FC42EA90124FEA806000
:1018E0004FEA1C4C0CFB0BF7D21B03FB0CF761EB14
:1018F00007010CFB0EF7B0EB074072EB17420CFB35
:1019000008F734BFA2EB0742B2EB074261EB174185
:101910004FEA8C554FEA910704EB9C2406FB07FC29
:101920004FEA1C4C0CFB0BF7B0EBC74072EB573285
:1019300003FB0CF734BFA2EBC742B2EBC74261EB2B
:1019400057310CFB0EF7B0EBC70072EB57720CFB74
:1019500008F734BFA2EBC702B2EBC70261EB5771C5
:1019600015EB4C254FEA816141EA92114FEA826200
:101970004FEAD13742EA901206FB07FC44F100041B
:101980004FEA80604FEA1C4C0CFB0BF7D21B03FBA9
:101990000CF761EB07010CFB0EF7B0EB074072EBA5
:1019A00017420CFB08F734BFA2EB0742B2EB074229
:1019B00061EB174115EB1C154FEA813141EA924169
:1019C0004FEA823242EA90424FEA80304FEA0C7688
:1019D00044F1000448EA03434EEA0B484FF0000E7E
:1019E000B2EB080C71EB030724BF624639464EEB9D
:1019F0000E0E4FF0000B0018524149414BEB0B0B00
:101A0000B2EB080C71EB03077BF1000B24BF6246BD
:101A100039464EEB0E0E4FF0000B00185241494173
:101A20004BEB0B0BB2EB080C71EB03077BF1000BDC
:101A300024BF624639464EEB0E0E51EA020718BF2C
:101A400046F0010616EB0E7655F1000254F1000146
:101A500003D5BDE88901BDE80088BDE88901BDE87E
:101A60000048B619524141EB0101A3F1010370474F
:101A700080807F7E7D7C7B7A7978777676757473CB
:101A8000727171706F6E6E6D6C6C6B6A6A6968688A
:101A9000676666656464636362616160605F5F5E20
:101AA0005E5D5D5C5C5B5B5A5A5959585857575696
:101AB00056555555545453535252525151505050FB
:101AC0004F4F4F4E4E4D4D4D4C4C4C4B4B4B4A4A4D
:101AD0004A49494948484847474747464646454591
:101AE00045444444444343434342424242414141CA
:101AF000002B9C4630D477002BD01CB54FEA37071B
:101B000003B44FF010004FF01001BAF1000F06D0EF
:101B1000BCF1000FDCBF40F0080040F008014FF0BE
:101B200000000FBCBDE810400BF1010BBBF1010F31
:101B300008BF5FEA170722BF12F1010211F101018C
:101B40004FF0004143F1000300F0004043EA000081
:101B50007047F9D35708D0E746EA064613F1400F1D
:101B60004FEA16461FDD13F1200FDFBF16430A466A
:101B7000002120335B42BED0C3F1200746EA06466F
:101B800002FA07F74FEA164646EA0706C3F12007AE
:101B900022FA03F201FA07F721FA03F14FF00003EA
:101BA00042EA0702A7E746EA020646EA06464FEA85
:101BB000164646EA0106BCBF46EA0646360C4FF01A
:101BC00000034FF000024FF0000194E72DE9804C34
:101BD0009A46934670B491E8380007C831EA400C41
:101BE00048BF34EA430C03D5FFF7E6FDFFF780FF5B
:101BF000F0BCBDE8008C2DE9804C9A46934670B449
:101C000091E8380007C810F0804F08BF13F0804FEC
:101C100003D100F005F8FFF76BFFF0BCBDE8008CC6
:101C200020F07F4780EA030023F07F4C07EB0C0392
:101C3000A3F57C5300F00040A3F1FE0392F0000FE7
:101C400000F0B38095F0000F00F077802DE9014996
:101C50004FEA11404FEA144621EA004800FB06FC17
:101C600024EA064708FB06F607FB08F800FB07F71F
:101C700018EB06484CEB164C4FEA124B18EB074892
:101C80004FEA15464CEB174022EA0B4E0BFB06FCC5
:101C900025EA06470EFB06F607FB0EFE0BFB07F7D1
:101CA0001EEB064E4CEB164C4FF000061EEB074E9B
:101CB0004CEB174B18EB0B0840F1000018EB0E0B28
:101CC00058EB000840F100008F1A4FF000013CBFB4
:101CD000C943661B14BFB5EB040C00213CBFC943CC
:101CE000F61B4FEA17444EEA8E0E27EA04454FEAE8
:101CF0001C4704FB07622CEA074C05FB07F70CFBAB
:101D000005F604FB0CFC16EB074642EB174216EBFC
:101D10000C4642EB1C421BEB060658EB020241410B
:101D200046EA9E0601D5BDE80189B619524141EB4C
:101D30000101A3F10103BDE801894FEA14454FEA0F
:101D4000114724EA054621EA074C05FB07F406FB88
:101D500007F70CFB06F105FB0CFC11EB074144EB0C
:101D600017444FEA124711EB0C4144EB1C4422EAA2
:101D7000074C05FB07F206FB07F70CFB06F605FB15
:101D80000CFC16EB074642EB174216EB0C4642EBF7
:101D90001C456A1854F1000148BF7047B6195241FA
:101DA00041EB0101A3F10103704795F0000F37D01B
:101DB0004FEA11424FEA144721EA024624EA074C4F
:101DC00002FB07F106FB07F70CFB06F402FB0CFC19
:101DD00014EB074441EB17414FEA154714EB0C4451
:101DE00041EB1C4125EA074C02FB07F506FB07F710
:101DF0000CFB06F602FB0CFC16EB074645EB174501
:101E000016EB0C4645EB1C42121951F1000148BF7C
:101E10007047B619524141EB0101A3F1010370472C
:101E20004FEA14454FEA114724EA054621EA074CD8
:101E300005FB07F106FB07F70CFB06F24FF0000667
:101E400005FB0CFC12EB074241EB174112EB0C4275
:101E500051EB1C4148BF7047921841EB0101A3F1BF
:101E600001037047FEE7704772B6FEE710B590F8C1
:101E700021100024022903D00421816301243DE0C4
:101E800001680A6822F00E020A6001680A6822F0FE
:101E900001020A601A4A0168914201D1012121E040
:101EA000174A1432914201D110211BE0144A283202
:101EB000914201D1891515E0114A3C32914201D17C
:101EC00089140FE00E4A5032914202D14FF4803112
:101ED00008E00B4A6432914202D14FF4801101E0D4
:101EE0004FF08071064A083A5160012180F82110B4
:101EF000002180F82010416B01B18847204610BDB9
:101F00000800024090F82100704700002DE9F84FCA
:101F1000DFF8B8910024A9F1040B23460F2709F13B
:101F2000040AABF1040EC9E00125A5402A40AA42EB
:101F30007DD1674ED1F804C0ACEB0608B44532D071
:101F400014DCBCF1030F3AD009DCBCF1000F2AD03D
:101F5000BCF1010F1CD0BCF1020F31D11DE0BCF16E
:101F6000110F17D0BCF1120F2AD119E0B8F5881F54
:101F700019D006DCB8F5803F15D0B8F5801F1FD109
:101F800011E0B8F5001F0ED0B8F5041F18D10AE013
:101F9000CB6815E0CB681B1D12E0CB6808330FE05F
:101FA000CB680C330CE08B682BB1012B4FF008038E
:101FB00003D0456104E0042302E0056100E0002352
:101FC000FF2A01D8064601E000F104064FEA840525
:101FD00001D9A5F12005D6F8008007FA05FC28EA0A
:101FE0000C0803FA05F548EA0508C6F800804D68B4
:101FF000ED0062D5374DAE6946F00106AE61AD69C0
:1020000024F0030605F001050095334D06EB050CA1
:10201000DCF80850A607360F07FA06F825EA080587
:10202000DFF8B880404503D14FF0000817E044E0E6
:10203000DFF8AC80404502D14FF001080FE0DFF837
:10204000A480404502D14FF0020808E0DFF89880F4
:10205000404502D14FF0030801E04FF0040808FAB0
:1020600006F848EA0508CCF808804D68D9F8006001
:10207000ED024D4601D5164300E096432E604D68B3
:10208000DAF80060AD02554601D5164300E09643EC
:102090002E604D68DBF80060AD035D4601D5164348
:1020A00000E096432E604D68DEF80060ED03754653
:1020B00001D5164300E096432E60641C0D682A4645
:1020C000E5407FF431AFBDE8F88F0000080401401F
:1020D0000000111000100240000001400008014003
:1020E000000C0140001001400014014001488068CC
:1020F0007047000000000020704770472DE9F04154
:10210000016804464A694E6890F83E000025D743AE
:10211000FA050BD4F243D20508D46FF4807201257E
:102120004A6121680A6842F400420A60B90508D48D
:10213000F143C90505D422686FF4007145F002052A
:102140005161790525D4F143C90522D4638D94F8F2
:102150003D10226B202808D13BB9212910D0292914
:102160000ED0282901D1212A0AD022686FF480617B
:10217000516145F00405102806D0402804D008E03D
:10218000204601F05DFA04E02068016841F4007126
:102190000160380508D4F043C00505D421686FF408
:1021A000006045F008054861002D07D0206C2843E9
:1021B00020642046BDE8F04100F042BEBDE8F08159
:1021C0002DE9F047026800215368C66A90F83E4046
:1021D00090F83D50102C12D0402C10D0046C002CE4
:1021E0007DD05469E443A6077AD4DE43B60577D49C
:1021F000036C03B19169BDE8F04701F0FDB997693F
:1022000051694FF42A0CC9435FEAC1784FF02A495B
:1022100004D066452AD04E4528D010E0DE43B605EE
:102220000DD4C16A614501D1012103E0C16A49456C
:1022300001D10821C162BDE8F04701F043B90E07A2
:1022400016D4DE43B60513D4416CC9B21161416B9B
:1022500009B1896A29B9816B002907D0896A0029E7
:1022600004D00068416841F400614160BDE8F08736
:102270008E0706D4DE43B60503D4BDE8F04701F06F
:1022800075B8FE43526876074FEA02521DD4002A01
:10229000ECDB0A0608D4DA43520505D4490705D514
:1022A000BDE8F04701F006B84907DFD4D9438905F6
:1022B000DCD4212D05D0402CD8D1BDE8F04701F069
:1022C00047B9BDE8F04700F0B3BF002ACEDB4A06AD
:1022D0000BD4DA43520508D4490708D501E00DE0D4
:1022E0000EE0BDE8F04700F0DBBE4907BED4D9439D
:1022F0008905BBD4BDE8F04700F065BE916970E781
:10230000E10606D4D943890503D4BDE8F04701F0BE
:10231000DFB92821212D27D0292D25D0650655D4B8
:10232000DD436D0552D4640752D590F83D30448D9D
:10233000002C9BD01269446A2270426A521C42628D
:10234000428D521E4285428D002A8FD12A2B8DD17B
:102350000268536823F4806353602222026380F88A
:102360003D1000F0EFF981E7250623D4DD436D052C
:1023700020D4640720D590F83D30448D002CF2D055
:10238000446A24781461426A521C4262428D521E91
:102390004285428D002AE6D1292BE4D10268536898
:1023A00023F4806353602122026380F83D1000F023
:1023B000CAF95BE76107D6D4D9438905D3D4418DE7
:1023C0000029D0D0416A097811610AE06107CAD4B6
:1023D000D9438905C7D4418D0029C4D01169426A07
:1023E0001170416A491C4162418D491E41853DE79A
:1023F0007047000070B5040025D094F83D0000251A
:1024000020B984F83C50204600F054F9242084F888
:102410003D002068016821F0010101602068016829
:1024200041F4004101602068016821F4004101602D
:1024300000F0B8FA4D4A6168914201D84C4900E079
:102440004C49884201D2012070BD4B492368B0FB42
:10245000F1F15E6826F03F060E435E6063689342CA
:1024600006D94FF4967359434FF47A73B1FBF3F1E5
:102470002368491C1E6A26F03F06314319626168D1
:10248000914210D84900401EB0FBF1F2521CC2F339
:102490000B02042A01D2042022E0B0FBF1F0401C20
:1024A000C0F30B001CE0A268F2B301EBC10303EB25
:1024B0000116431EB3FBF6F35B1C43F480431B057C
:1024C00049D092B301EBC10202EB0111401EB0FBF7
:1024D000F1F0401CC0F30B0040F4804040F4004099
:1024E0002168CA694CF6FF739A431043C861D4E966
:1024F000071001432068026822F0C0021143016006
:10250000D4E9030101432068826848F2FF339A430B
:1025100011438160D4E9050108432168CA6822F0AB
:10252000FF021043C86001E00EE016E02068016879
:1025300041F0010101602564202084F83D002563FD
:1025400084F83E50002070BD01EB4106431EB3FBF2
:10255000F6F35B1CB3E70120C2E701EB4101401E2B
:10256000B0FBF1F0401CC0F30B00B7E7A086010000
:1025700080841E0000093D0040420F0070477047F4
:10258000704700002DE9F84F1F4690468A460446E2
:10259000DDF82890FFF7AAFD054694F83D002028B5
:1025A0007FD11923012240492046009501F06AF9A4
:1025B000002876D194F83C00012872D0012084F8DC
:1025C0003C0020680168C90703D1016841F001019E
:1025D00001602068016821F400610160212084F815
:1025E0003D00102084F83E0000262664C4F82480B4
:1025F0006785608D20852D48E0622B464A4651460E
:10260000204600F0C7FD90B92068416980690090BC
:1026100036E02A464946204601F0DAF950B1206CEE
:10262000042804D12068016841F400710160012090
:10263000BDE8F88F606A216800780861606A401C14
:102640006062618D491E6185218D491E89B2218597
:1026500022685369DB435B070BD451B100781061EA
:10266000606A401C6062608D401E6085208D401E47
:1026700020852A464946204601F0D8F80028CED1C8
:10268000208D0028C5D154F83D0B016841F400713C
:102690000160202004F81E09E67766770020C7E76E
:1026A000FFE70220C4E70000020010000000FFFF67
:1026B0007047704710B586B00021009101910291DA
:1026C000039100681B49884232D11B4CA06940F03D
:1026D0000800A061A069694600F0080004904FF46A
:1026E0004070009012200190022003901348FFF7E1
:1026F0000DFC1348416841F0E06141F00201416086
:10270000E06940F40010E061E069002200F400108C
:10271000049011461F2000F07DF81F2000F06CF897
:1027200000221146202000F075F8202000F064F807
:1027300006B010BD0054004000100240000C0140E3
:1027400000000140704770470248816802781144D8
:102750008160704700000020074810B5016841F013
:1027600010010160032000F075F80F2000F006F85A
:1027700000F024F8002010BD0020024070B50D4D7F
:1027800004464FF47A712878B1FBF0F00A490968E1
:10279000B1FBF0F000F0CCFA48B9102C07D20022BF
:1027A0002146501E00F036F800206C6070BD0120FC
:1027B00070BD0000000000200C0000200C4808B58F
:1027C000816941F001018161816901F0010100919C
:1027D000C16941F08051C161C06900F08050009032
:1027E0000448416821F0E06141F00071416008BD9A
:1027F0000010024000000140002809DB00F01F0229
:10280000012191404009800000F1E020C0F8001152
:1028100070470000F0B40E4B1B680C46C3F3022354
:10282000C3F10705042D00D90425191D072901D27C
:10283000002300E0DB1E012606FA05F1491E2140B7
:1028400099409E40761E16403143F0BC01F063BBB8
:102850000CED00E0064900F0070208684FF6FF03A0
:10286000184040EA0220034A104308607047000005
:102870000CED00E00000FA052DE9F0470F460500D9
:1028800061D0434E306800F00700B84209D230688A
:1028900020F0070038433060306800F00700B8428D
:1028A00051D128683B4C810712D5400703D5606899
:1028B00040F4E06060602878000703D5606840F469
:1028C000605060606068A96820F0F00008436060B4
:1028D0002878C00728D06868012810D0216802280D
:1028E00010D0890700292EDA616821F00301014325
:1028F0006160FFF7FBFB804641F288390DE02168FB
:102900008903EFE78901EDE7FFF7F0FBA0EB080192
:10291000494502D90320BDE8F0876068696800F086
:102920000C00B0EB810FEFD1306800F00700B84227
:102930000BD9306820F0070038433060306800F071
:102940000700B84201D00120E5E72878400705D507
:102950006068E96820F4E060084360602878000758
:1029600006D56068296920F4605040EAC1006060C3
:1029700000F028F86168084AC1F30311515CC840AF
:102980000649086006480068FFF7F8FE0020C2E725
:102990000020024000100240E63F00080C0000202A
:1029A000040000200448054900684968044AC1F34E
:1029B0000221515CC84070470C000020001002400A
:1029C000F63F00080E4A51680E4801F00C03042B34
:1029D00011D0082B0FD10C48C1F38343C903C05C4D
:1029E0000AD55168084AC1F34041921E515C054A1C
:1029F0005043B0FBF1F07047044948437047000072
:102A00000010024000127A00D63F000800093D0085
:102A10002DE9F84F040070D02078C04DC00749D090
:102A20006868C0F38100012807D06868C0F381009E
:102A3000022809D16868C00306D52868800339D503
:102A400060680028E7D035E06068B0F5803F0BD0C3
:102A500010B1B0F5A02F11D0286820F48030286084
:102A6000286820F4802002E0286840F48030286044
:102A7000606890B1FFF73AFB06460AE0286840F428
:102A800080202860F0E700BFFFF730FB801B642840
:102A900073D828688003F7D50CE0FFF727FB0646BC
:102AA00005E000BFFFF722FB801B6428F0D82868F0
:102AB0008003F7D420789A4E80074FF001094FF039
:102AC000000839D5686810F00C0F07D06868C0F3AB
:102AD0008100022809D16868C00306D428688007ED
:102AE00014D52069012808D110E02069B0B1C6F8DA
:102AF0000090FFF7FBFA074605E00AE1FFF7F6FA58
:102B0000C01B0228C4D828688007F7D528686169E7
:102B100020F0F80040EAC10028600DE0C6F800800F
:102B2000FFF7E4FA074604E0FFF7E0FAC01B0228CB
:102B300023D828688007F7D4207800072CD5794857
:102B4000A169D9B1C0F80090FFF7D0FA074604E0B8
:102B5000FFF7CCFAC01B02280FD8686A8007F7D5A8
:102B600071484FF4FA510068B0FBF1F0009000BFDB
:102B70000098411E0091FAD20EE080E0C0F800807B
:102B8000FFF7B4FA074604E0FFF7B0FAC01B0228CB
:102B900075D8686A8007F7D42078400760D5E8695F
:102BA0000027C00008D4E86940F08050E861E86977
:102BB000012700F0805000905C480168C90513D4DB
:102BC0000168834641F480710160FFF78FFA824605
:102BD00006E000BFFFF78AFAA0EB0A0064284ED88F
:102BE000DBF80000C005F5D5E06801280AD008B17F
:102BF000052813D0286A20F001002862286A20F0F6
:102C0000040002E0286A40F001002862E06841F216
:102C1000883B98B1FFF76AFA82460BE0286A40F0D9
:102C200004002862EEE700BFFFF760FAA0EB0A019C
:102C300059455AD8286A8007F6D50CE0FFF756FAAE
:102C4000824605E0FFF752FAA0EB0A0159454CD83D
:102C5000286A8007F6D41FB1E86920F08050E86147
:102C6000E06988B36968C1F38101022944D0022870
:102C7000C6F8608004D0FFF739FA044638E034E043
:102C8000FFF734FA074604E0FFF730FAC01B0228CA
:102C90002BD828688001F7D4206AB0F5803F05D191
:102CA0006868A16820F4003008436860D4E908012E
:102CB0000843696821F4741108436860C6F860909D
:102CC000FFF714FA044606E025E000BFFFF70EFA0E
:102CD000001B022809D828688001F7D51BE000BF37
:102CE000FFF704FA001B022802D90320BDE8F88F81
:102CF00028688001F4D40EE00128F7D06868226AC1
:102D000000F48031914204D1616A00F4701088426D
:102D100001D00120EAE70020E8E7000000100240AF
:102D200000004242800442420C000020007000403B
:102D300010B5401EB0F1807F01D3012010BD4FF0CF
:102D4000E02460610F21601701F0E5F80020A06128
:102D500007202061002010BDFEE700000148FFF7BA
:102D6000CDB90000100000200148FFF729BA00008B
:102D70001000002038B5406A002190F83D202B4B10
:102D800046F2A8141B68B3FBF4F3C3EBC30303EBD5
:102D9000830300933BB15B1E009303681B689B0594
:102DA00005D5009BF6E7036C43F020030364436BF7
:102DB00003B19962836B03B1996203681C6824F4C0
:102DC00080641C604185436B03B15963836B03B11D
:102DD000596303681C6824F001041C6090F83D40AE
:102DE0002023602C0BD0282434EA02020FD080F874
:102DF0003D3080F83E1000BFFFF7FAFA38BD80F88A
:102E00003D3080F83E100164FFF776F938BD026866
:102E1000136843F0010313600268136843F480638E
:102E20001360016380F83D40E6E700000C000020DD
:102E300000684169C943090601D400210161704756
:102E400070B5044690F83D0094F83E10102901D06A
:102E5000402906D1222804D121680A6822F40062A0
:102E60000A60282131EA00024FF000054FF02006E9
:102E700026D021684968090505D4602803D084F864
:102E80003D6084F83E50256320684168090537D5C8
:102E9000416821F400614160606B90F821203C4959
:102EA000012A11D04163606BFEF7E0FF38B3206860
:102EB000016821F00101016084F83D60606B1CE055
:102EC000256384F83D10DFE7A06B4163A06BFEF73C
:102ED000CDFFA0B120684169C943490605D4006906
:102EE000616A0870606A401C60622068016821F0B5
:102EF0000101016084F83D60A06B416B884710E0E0
:102F000094F83D10602910D04169C943490605D4A1
:102F10000069616A0870606A401C60622046FFF7C1
:102F200067FA206CC1071CD115E084F83D60256468
:102F30004169C943490605D40069616A0870606A3D
:102F4000401C60622068016821F001010160204698
:102F5000FFF7D2F8E5E7810703D4410701D4000762
:102F600004D52068416821F4E061416094F83D0097
:102F7000216C49070BD5282809D10648E062256352
:102F800084F83D6084F83E502046FFF7F7FA70BDA4
:102F9000752D00080000FFFF01684A69D243520501
:102FA0000FD46FF480624A61002140F8301F202264
:102FB00042738173026942F00402026101730120CD
:102FC00070470020704710B5C26A438D0168042B1A
:102FD00006D0438D032B08D0438D022B1DD012E069
:102FE0004A6822F480624A600CE04B6823F48063F4
:102FF0004B60042A06D0022A04D001680A6822F431
:1030000080620A6001680969426A1170416A491C5C
:103010004162418D491E418510BD012A34D0102ADC
:1030200032D0042A34D0022A32D00B6843F4007321
:103030000B6001680969436A1970416A491C416261
:10304000438D5B1E438503681B690B70416A491CF5
:103050004162418D491E418501684B6823F44073EC
:103060004B60202180F83D1090F83E300021402B2D
:1030700080F83E1010D0082A02D0202A00D0122159
:103080000163FFF77CFA10BD0B6823F48063CFE780
:103090000B6843F48063CBE70163FFF709FB10BDC6
:1030A00038B590F83D10222910D1C36A418D03290B
:1030B0000DD901680969426A1170416A491C41626F
:1030C000418D491E4185418D032906D038BDC26A14
:1030D000022A02D0012906D029B10068416821F4F2
:1030E0008061416038BD2A4A46F2A8140021126866
:1030F000B2FBF4F202EB8202009202682024009DEF
:103100006D1E009526D01568AD05F8D4156825F418
:10311000806515600268556825F4E06555600268B1
:103120001269456A2A70426A521C4262428D521EDE
:10313000428580F83D4090F83E2080F83E10402ABD
:1031400021D0082B02D0202B00D012210163FFF7E1
:1031500016FA38BD036C43F020030364536823F46C
:10316000E063536002681269436A1A70426A521C33
:103170004262428D521E428580F83D4080F83E10EA
:10318000FFF736F938BD0163FFF792FA38BD00004A
:103190000C000020F8B50446C06A1E460D461746CE
:1031A000082807D0012805D010F5803F02D0206BF9
:1031B000122804D12068016841F48071016013462F
:1031C00000224FF001112046009600F05BFB40B159
:1031D00020680068C00502D54FF400702064032009
:1031E000F8BD2069B0F5804F0ED00620216800EAB6
:1031F000D51040F0F000086133463A460B492046AE
:1032000000F088FB78B902E005F0FE0000E0E8B2CB
:1032100021680861054933463A46891F204600F077
:1032200079FB0028DCD00120F8BD00000800010077
:1032300010B5C26A90F83D1021290BD1418D51B1D2
:10324000416A026809781161416A491C4162418DF5
:10325000491E418510BD20230021082A13D0202AB1
:1032600011D012F5803F0ED00268546824F4E06457
:1032700054601122026380F83E1080F83D3000BF98
:10328000FFF77EF910BD0268546824F4E0645460CE
:103290000268146844F400741460016380F83D30DF
:1032A00090F83E2080F83E10402AE9D1FFF701FA5D
:1032B00010BD000010B590F83D1090F83E30C26A85
:1032C000048DB4B1212903D0402B11D122290FD173
:1032D000418DE1B390F83E10402942D0416A026826
:1032E00009781161416A491C4162418D491E41853D
:1032F00010BD2129E8D120230021082A13D0202A3B
:1033000011D012F5803F0ED00268546824F4E064B6
:1033100054601122026380F83E1080F83D3000BFF7
:10332000FFF72EF910BD0268546824F4E06454607D
:103330000268146844F400741460016380F83D303E
:1033400090F83E2080F83E10402AE9D100E002E0EB
:10335000FFF7AFF910BD0068416821F4806141605A
:1033600010BDBDE8104000F0F3B8000078B590F84B
:103370003E50C26A046B90F83D6000230168222E23
:1033800073D1066D0EB9402D6FD0056D1DB905695D
:10339000B5F5404F1BD0458D95B3468D484D012E58
:1033A00020D0448D022C4DD00C6844F480640C6015
:1033B00001684C68240579D5AA4273D0012A71D0DE
:1033C000082A6FD0102A6DD0202A6BD06EE04A698F
:1033D0008A6900920A6842F480720A60016D491C91
:1033E000016578BDAA4214D10A6822F480620A609D
:1033F00001684A68120504D50A6822F4806217E061
:10340000FFE74A698A6900920A6842F400720A601A
:1034100050E0082A10D0202A0ED0122C0AD0042AFC
:1034200003D0022A01D0102AE6D10A6842F4806251
:103430000A603BE0012ADFD00A6822F480620A6059
:103440000168DEE7042A11D0022A0FD0102A0DD01D
:103450000C6844F400640C6001684C698C69009449
:103460000C6824F480640C6008E025E00C6844F4E7
:1034700080640C6001684C698969009101684C683E
:10348000240517D5AA4207D0012A05D0082A03D05F
:10349000102A01D0202A0DD14A6842F480524A6095
:1034A00008E0FFE74A6842F480524A6001684A69CE
:1034B00089690091036578BD48698869009078BD85
:1034C0000000FFFF90F83E10402910D00169B1F5CF
:1034D000804F19D0016DA9B3016D012910D1416C44
:1034E0005FF0F10201F4407142EAD11106E0016D92
:1034F0000029416C05D0C9B241F0010100680161A9
:10350000704701F0FE01F9E790F83D102129416C68
:1035100009D0C9B241F0010102681161416B29B1C2
:10352000896A49B902E001F0FE01F5E7816B0029E3
:10353000E6D0896A0029E3D00068416841F400615F
:1035400041607047FFE7416CF02201F44071CBE726
:1035500010B590F83D10026D4AB1026D012A14D0E9
:10356000026D022A16D0BDE81040FFF761BCC16CA5
:103570000129816C02D0C1F3072108E00268C9B2B9
:103580001161016D891C016510BD816CC9B20268B1
:10359000116123E022291CD0428D0AB1212920D0BB
:1035A000428D002AF0D12129EED101684A6822F427
:1035B000E0624A6001680A6842F400720A60002111
:1035C0000163202280F83D2080F83E10FFF771F85B
:1035D00010BD01680A6842F480720A60016D491CDE
:1035E000D1E7416A026809781161416A491C416268
:1035F000418D491E418510BD38B50C4690F83D20DF
:1036000000212825954302680B4605D05169916930
:10361000009180F83C3038BD556825F480655560D0
:10362000E243540700D50121120601D5828900E04A
:10363000028B80F83C3092B2FEF75FFD38BD00008F
:103640002DE9F04190F83D300446C26A0021202661
:103650001E4F00686FF48065082A01D0202A01D12E
:10366000282B04D0212B17D04561BDE8F081E762FB
:10367000426822F4E0624260206845612068026886
:1036800022F480620260216384F83D6084F83E1079
:103690002046FEF773FFE8E7E7622122226384F801
:1036A0003D6084F83E10416821F4E061416020688B
:1036B00045612068016821F4806101602046FFF7C0
:1036C000B7FB2046FFF73FF8CFE700000000FFFF01
:1036D000F8B590F83D6004460068416821F4E06167
:1036E00041602068002541690091016841F00101B5
:1036F00001602068016821F48061016020684168F0
:10370000090520D5474F222E48D02A2E46D0616B7E
:10371000096849686185618D19B1216C41F0040126
:103720002164416821F400614160606BFEF7EAFBAF
:10373000012808D0606B4763606BFEF797FB10B100
:10374000606B416B8847608D08B320684169C9434D
:10375000490708D40069616A0870606A401C6062A9
:10376000608D401E608520684169C943490608D4C0
:103770000069616A0870606A401C6062608D401E6A
:103780006085608D18B1206C40F004002064206CCE
:1037900000B32046BDE8F840FFF752BBA16B0968B3
:1037A00049686185618D19B1216C41F00401216482
:1037B000416821F400614160A06BFEF7A3FB012882
:1037C000C1D0A06B4763A06BFEF750FB0028BAD0B6
:1037D000A06BB6E72A2E06D12563282084F83D0089
:1037E0002046FEF7AFFF94F83D10202028290DD089
:1037F000216B222901D0222E07D1256384F83D00B8
:1038000084F83E502046FEF79DFFF8BD0649E16270
:10381000256384F83D0084F83E502046FEF7AEFE56
:10382000F8BD0000752D00080000FFFF70B51646BA
:103830000D4604461EE02046FFF7AEFB08B101200E
:1038400070BD681C16D0FEF751FC801BA84200D842
:1038500085B920684069C04340070BD5002044F873
:10386000300F20216173A073216941F02001216193
:103870002073E4E720684069C0434007DBD40020A0
:1038800070BD00002DE9F047984617460D460446E6
:10389000C1F30746DDF820902AE000BFB8F1FF3FF2
:1038A00026D0FEF723FCA0EB0901414502D8B8F170
:1038B000000F1DD12068012E16D0806925EA000076
:1038C0000004000C12D00020B84211D1002044F8AE
:1038D000300F20216173A073216941F02001216123
:1038E00020730120BDE8F0874069E7E70120EBE79E
:1038F0002068012E0AD0806925EA00000004000C2F
:1039000006D00020B842C9D00020EBE74069F3E7B9
:103910000120F7E72DE9F047984616460D46044684
:103920004FF000094FF0200AC1F3074723E0206859
:103930004069C043400515D42068016841F4007116
:10394000016021686FF480604861C4F8309084F8A9
:103950003DA084F83E90216C41F00401216484F87C
:103960003C9021E0701C06D0FEF7C0FBA0EB0800E5
:10397000B04203D816B1012F1FD021E02068012FDB
:1039800015D0806925EA00000004000C18D000BFA3
:1039900044F8309F84F80DA084F80E90216941F01E
:1039A0002001216184F80C900120BDE8F087406976
:1039B00025EA00000004000CEAD12068406901E01B
:1039C0002068806925EA00000004000CAFD1ECE714
:1039D00070B516460D4604461EE02046FFF7DCFA99
:1039E00008B1012070BD681C16D0FEF77FFB801B5C
:1039F000A84200D885B920684069C04300060BD5AD
:103A0000002044F8300F20216173A073216941F038
:103A1000200121612073E4E720684069C04300066B
:103A2000DBD4002070BD000000B585B000200190FF
:103A3000029003901048816941F020018161816901
:103A400001F020010491816941F0040181618169E3
:103A500001F004010491816941F0080181618069EC
:103A6000694600F008000490942000900348FEF797
:103A70004DFA05B000BD00000010024000080140F2
:103A80000D4810B50B4901600C49416000214FF40D
:103A900080428160C0E9031241618161C1610162BC
:103AA000FEF7A8FC002803D0BDE81040FEF7DCB903
:103AB00010BD00000054004010000020A08601004E
:103AC000FEE7FEE710B50021074C0A46002004EB94
:103AD000C1131A54401CC0B28028FAD3491CC9B281
:103AE0000829F3D310BD000064000020F0B50B449A
:103AF00024E0044685181DE07F2C19D8002917DB27
:103B00003F2915DCCE1701EB56764FEAE60C0D4F38
:103B100026F0070607EBCC172744A1EB060E97F813
:103B200000C0012606FA0EF62CEA060C87F800C043
:103B3000641C24B2A542DFDC491C09B28B42D8DCEC
:103B4000F0BD00006400002010B5AE2000F06CF95C
:103B5000D52000F069F9802000F066F9A82000F077
:103B600063F93F2000F060F9D32000F05DF90020F8
:103B700000F05AF9402000F057F9A12000F054F964
:103B8000C82000F051F9DA2000F04EF9122000F0C0
:103B90004BF9812000F048F9CF2000F045F9D920F9
:103BA00000F042F9F12000F03FF9DB2000F03CF991
:103BB000302000F039F9A42000F036F9A62000F0FA
:103BC00033F98D2000F030F9142000F02DF9AF20EA
:103BD00000F02AF9FFF776FFBDE8104000F010B9B9
:103BE0000FB470B5C0B014460D46064648AA6846E4
:103BF0004799FCF799FB23466A462946304600F070
:103C000091F840B070BC5DF814FB10B50C4640F064
:103C1000B00000F009F9102040EA141000F004F997
:103C200004F00F00BDE8104000F0FEB808B5082B06
:103C30000DD0062B0AD10A4B02EB420203EB4202E3
:103C4000C03A00920823062200F00EF808BD054B8A
:103C500003EB0212A2F50072102300920822F3E790
:103C6000EE450008FE3F00082DE9F04F1F461646BE
:103C70000D4682460024FFF739FF7F1EF81707EB39
:103C800050700121DFF898B001EBE00743E000201D
:103C90003DE000BF0AEB00037F2B36D8E91705EBA8
:103CA0005171CA1021F00701691A002D03DA521E62
:103CB000083112B209B202EB0409B9F1070F0ED8AC
:103CC000099A04FB06F802440BEBC91E18F80220FF
:103CD0001EF803C08A404CEA020C0EF803C009F13A
:103CE0000102072A11D80BEBC91202EB0308099A4B
:103CF00004FB06FC024498F880301CF80220C1F155
:103D00000801CA40134388F88030401CC0B2B0425A
:103D1000C0D3641CE4B2A742B9DCBDE8F08F000058
:103D2000640000202DE9FF4F002583B09B4690469C
:103D30002C46AA46DFF8C09056E010068DF8042005
:103D400005F101050DD40398ADB220448DF805A00E
:103D500000B25B460499FFF769FF04EB0B0084B2E5
:103D600042E0A8B218F80010002941D0401C8DF89C
:103D7000051085B28DF806A0002606E0384601A998
:103D8000FCF750FB68B1761CB6B2C6EBC60000EB80
:103D9000800101EB0900074618A1FCF743FB00284E
:103DA000ECD1BBF1080F03D0BBF1060F1CD111E021
:103DB000C6EBC60000EB800101EB0900C01C0090BF
:103DC00003981023204400B21A460499FFF74CFFD1
:103DD000103408E003980623204400B23F220499DF
:103DE000FFF724FFA41DA4B218F80520002AA4D1CF
:103DF00007B0BDE8F08F0000284800080000000070
:103E000070B5084D002400212046FFF7FEFE05EBAB
:103E1000C410802100F018F8641CE4B2082CF2D31E
:103E200070BD0000640000201CB5002101918DF8D8
:103E30000500481E0090022301AA78210148FEF7E0
:103E4000A1FB1CBD10000020F8B506460C46481C1E
:103E5000FCF714FA05464020287022463146681CBB
:103E6000FCF774FA4FF0FF300090631C2A4678216B
:103E70000348FEF787FB2846BDE8F840FCF72DBA5B
:103E80001000002070477047FEF75EBC30B58FB061
:103E900028216846FCF79FFA14210AA8FCF79BFA30
:103EA00001210804CDE900100024029402250491A8
:103EB000CDE907504FF4E01009906846FEF7A8FDE1
:103EC00008B172B6FEE70F20CDE90A054FF4806015
:103ED000CDE90C4002210AA80E94FEF7CDFC002883
:103EE00001D072B6FEE70FB030BD7047FEE7490063
:103EF00050EAC12018BF04204A0D18BF40F001004D
:103F000040F2FF72B2EB515F08BF40F0020001289F
:103F100008BF052070470907090E002804DB00F1DF
:103F2000E02080F80014704700F00F0000F1E0205E
:103F300080F8141D704730380A2801D201207047DC
:103F400000207047FEF708FCFFF7A0FFFFF76CFDAD
:103F5000FFF796FDFFF7F8FD002104A306220846AF
:103F6000FFF73EFEFFF74CFFFEE700006661666468
:103F70006100000010B500290AD00878002807D099
:103F800005487844FCF74EFA002801D0002010BD07
:103F90000248784410BD0000BA0A0000B20A0000CE
:103FA00010B500290AD00878002807D005487844C1
:103FB000FCF738FA002801D0002010BD02487844F0
:103FC00010BD0000AA0A0000A20A0000FCF739BFD9
:103FD000FDF76EB8010202030405060708090A0B83
:103FE0000C0D0E0F10100000000000000000010278
:103FF0000304060708090000000001020304000092
:1040000000000000000000000000000000000000B0
:1040100000F800000000000000333000000000162F
:104020000E00160E0000000000000000000040C05E
:104030007840C0784000043F04043F04040000704E
:1040400088FC08300000001820FF211E0000F00846
:10405000F000E018000000211C031E211E0000F0EB
:104060000888700000001E21232419272110000059
:1040700000160E000000000000000000000000001C
:1040800000E01804020000000007182040000002B1
:104090000418E00000000040201807000000404025
:1040A00080F0804040000202010F01020200000087
:1040B00000F0000000000101011F010101000000EB
:1040C00000000000000000B07000000000000000D0
:1040D00000000000000000010101010101010000D9
:1040E0000000000000000030300000000000000070
:1040F000000080601804006018060100000000E065
:1041000010080810E000000F102020100F00001011
:1041100010F8000000000020203F20200000007068
:104120000808088870000030282422213000003060
:104130000888884830000018202020110E00000058
:10414000C02010F8000000070424243F240000F8D9
:104150000888880808000019212020110E0000E0BE
:10416000108888180000000F112020110E00003860
:104170000808C83808000000003F00000000007078
:10418000880808887000001C222121221C0000E001
:1041900010080810E0000000312222110F0000007A
:1041A00000C0C0000000000000303000000000002F
:1041B00000C0C0000000000080B0700000000000DF
:1041C0008040201008000001020408102000404038
:1041D000404040404000040404040404040000087B
:1041E0001020408000000020100804020100007030
:1041F00048080808F0000000003036010000C03018
:10420000C828E810E0000718272423140B0000003A
:10421000C038E0000000203C23020227382008F8C4
:10422000888888700000203F202020110E00C030B8
:10423000080808083800071820202010080008F88F
:1042400008080810E000203F202020100F0008F888
:104250008888E8081000203F20202320180008F854
:104260008888E8081000203F200003000000C030CC
:1042700008080838000007182020221E020008F84D
:1042800008000008F808203F210101213F20000814
:1042900008F8080800000020203F2020000000004F
:1042A0000808F8080800C08080807F00000008F837
:1042B00088C028180800203F20012638200008F870
:1042C000080000000000203F20202020300008F8D7
:1042D000F800F8F80800203F003F003F200008F8F1
:1042E00030C00008F808203F200007183F00E01009
:1042F00008080810E0000F10202020100F0008F818
:1043000008080808F000203F210101010000E0102A
:1043100008080810E0000F18242438504F0008F84F
:10432000888888887000203F2000030C30200070AF
:104330008808080838000038202121221C001808AD
:1043400008F8080818000000203F2000000008F8C6
:1043500008000008F808001F202020201F0008780F
:10436000880000C83808000007380E010000F8086F
:1043700000F80008F800033C0700073C0300081899
:1043800068808068180820302C03032C30200838FF
:10439000C800C83808000000203F200000001008B6
:1043A0000808C838080020382621202018000000FE
:1043B00000FE020202000000007F40404000000CAE
:1043C00030C000000000000000010638C0000002FC
:1043D0000202FE000000004040407F00000000207C
:1043E0001008040810200000000000000000000079
:1043F00000000000000080808080808080800002BB
:1044000004080000000000000000000000000000A0
:104410008080808000000019242222223F2008F89A
:10442000008080000000003F112020110E000000DD
:10443000008080800000000E11202020110000006C
:1044400000808088F800000E112020103F2000001E
:10445000808080800000001F222222221300008022
:1044600080F0888888180020203F2020000000006D
:10447000808080808000006B94949493600008F8A2
:10448000008080800000203F210000203F2000802D
:104490009898000000000020203F2020000000002D
:1044A00000809898000000C08080807F000008F89D
:1044B000000080808000203F24022D302000000872
:1044C00008F8000000000020203F2020000080802D
:1044D000808080808000203F20003F20003F0080BF
:1044E00080008080000000203F2100203F2000004D
:1044F000808080800000001F202020201F008080FE
:1045000000808000000080FFA12020110E0000002C
:10451000008080808000000E112020A0FF8080801D
:1045200080008080800020203F21200001000000CA
:10453000808080808000003324242424190000809F
:1045400080E0808000000000001F202000008080AC
:10455000000000808000001F202020103F2080806D
:1045600080000080808000010E30080601008080FD
:104570000080008080800F300C030C300F00008022
:104580008000808080000020312E0E31200080804D
:1045900080000080808080818E701806010000807D
:1045A0008080808080000021302C2221300000009B
:1045B0000000807C020200000000003F404000003C
:1045C0000000FF00000000000000FF0000000002EB
:1045D000027C800000000040403F0000000000809E
:1045E0004040800000800000000000010100000049
:1045F000000000000000002F00000000070007007E
:1046000000147F147F1400242A7F2A120023130829
:104610006462003649552250000000070000000087
:104620001C224100000041221C000014083E081416
:104630000008083E0808000000A060000008080804
:104640000808000060600000002010080402003E1E
:104650005149453E0000427F4000004261514946B9
:10466000002141454B31001814127F1000274545A9
:104670004539003C4A4949300001710905030036BB
:104680004949493600064949291E000036360000CE
:1046900000005636000000081422410000141414D3
:1046A0001414000041221408000201510906003EC2
:1046B0004955592E007C1211127C007F4949493618
:1046C000003E41414122007F4141221C007F494977
:1046D0004941007F09090901003E4149497A007FAB
:1046E0000808087F0000417F4100002040413F0151
:1046F000007F08142241007F40404040007F020CB0
:10470000027F007F0408107F003E4141413E007F50
:1047100009090906003E4151215E007F0919294619
:104720000046494949310001017F0101003F4040F5
:10473000403F001F2040201F003F4038403F0063A3
:1047400014081463000708700807006151494543C5
:1047500000007F4141000002040810200000414198
:104760007F0000040201020400404040404000007D
:1047700001020400002054545478007F4844443817
:1047800000384444442000384444487F003854549E
:10479000541800087E0901020018A4A4A47C007F1C
:1047A000080404780000447D4000004080847D00BF
:1047B000007F102844000000417F4000007C041866
:1047C0000478007C0804047800384444443800FC31
:1047D000242424180018242418FC007C080404084D
:1047E00000485454542000043F444020003C4040C2
:1047F000207C001C2040201C003C4030403C0044F9
:1048000028102844001CA0A0A07C004464544C4400
:104810000000087F41000000007F00000000417F91
:104820000800000804081008A3AC00000000000005
:1048300000000000000000000000000000583800E8
:104840000000000000000000000000A1A300000024
:104850000000000000000000000000000000000058
:104860001824241800000000000000000000C4E329
:1048700000008060F8074020180F08C808082818B2
:1048800000010000FF00100C0340807F00010618AB
:1048900000BAC3001010F01F10F000808282E29274
:1048A0008A868000402215081661000040807F0043
:1048B00000000000CAC000202020FE2020FF202091
:1048C00020FF20202020000000007F40404744447B
:1048D00044474040400000BDE700000000FE9292C7
:1048E00092FE929292FE0000000008080484621E6C
:1048F000010001FE020404080800000000FF01019D
:10490000013109090909897101010101FFFF808055
:10491000808080809681808080808080FF00000081
:1049200000000000000000003031323334353637EB
:1049300038394142434445464030580030313233E3
:1049400034353637383961626364656640307800E3
:104950000400000800000000000000020001000048
:10496000103031323334353637383961626364653B
:104970006678700030313233343536373839414259
:10498000434445465850000002400000000000A08B
:104990000000000005400000000000C8000000000A
:1049A0000C4000000000409C000000001940000086
:1049B0000020BCBE0000000034400000BFC91B8EB8
:1049C00000000004B5400000504BCFD06607E2CF96
:1049D000010000006C4100003E8251AADFEEA734C6
:1049E00001000000D9420000DCB5A0E23A301F9778
:1049F000FFFFFFFFB4450000FD25A0C8E9A3C14F9C
:104A0000FFFFFFFFFF3F00000000008000000000EC
:104A1000FF3F00000000008000000000684B00081D
:104A2000000000201000000028010008784B00085A
:104A300010000020B80A0000440100081C0000001B
:104A400043000000F8FFFFFF0C0000000E00000014
:104A50000F0000002E0000001001000043000000C5
:104A6000F8FFFFFF0040404040404040404041418F
:104A70004141414040404040404040404040404033
:104A800040404040400502020202020202020202CD
:104A900002020202022020202020202020202002CA
:104AA000020202020202909090909090101010105A
:104AB00010101010101010101010101010101010F6
:104AC000020202020202888888888888080808088A
:104AD0000808080808080808080808080808080856
:104AE000020202024000000000000000000000007E
:104AF00000000000000000000000000000000000B6
:104B000000000000000000000000000000000000A5
:104B10000000000000000000000000000000000095
:104B20000000000000000000000000000000000085
:104B30000000000000000000000000000000000075
:104B40000000000000000000000000000000000065
:104B50000000000000000000000000000000000055
:104B60000000000000000000010000001000000034
:084B70000000000000127A00B1
:04000005080000ED02
:00000001FF
